{
  "_format": "hh-sol-artifact-1",
  "contractName": "Locker",
  "sourceName": "contracts/Locker.sol",
  "abi": [
    {
      "anonymous": false,
      "inputs": [
        {
          "indexed": false,
          "internalType": "address",
          "name": "_owner",
          "type": "address"
        },
        {
          "indexed": false,
          "internalType": "uint256",
          "name": "_vaultId",
          "type": "uint256"
        }
      ],
      "name": "Claimed",
      "type": "event"
    },
    {
      "anonymous": false,
      "inputs": [
        {
          "indexed": false,
          "internalType": "address",
          "name": "_owner",
          "type": "address"
        },
        {
          "indexed": false,
          "internalType": "uint256",
          "name": "_newTimeStamp",
          "type": "uint256"
        }
      ],
      "name": "LockTimeExtended",
      "type": "event"
    },
    {
      "anonymous": false,
      "inputs": [
        {
          "indexed": false,
          "internalType": "address",
          "name": "_owner",
          "type": "address"
        },
        {
          "indexed": false,
          "internalType": "uint256",
          "name": "_targetTimestamp",
          "type": "uint256"
        }
      ],
      "name": "NativeCurrencyLocked",
      "type": "event"
    },
    {
      "anonymous": false,
      "inputs": [
        {
          "indexed": true,
          "internalType": "address",
          "name": "previousOwner",
          "type": "address"
        },
        {
          "indexed": true,
          "internalType": "address",
          "name": "newOwner",
          "type": "address"
        }
      ],
      "name": "OwnershipTransferred",
      "type": "event"
    },
    {
      "anonymous": false,
      "inputs": [
        {
          "indexed": false,
          "internalType": "uint256",
          "name": "_price",
          "type": "uint256"
        }
      ],
      "name": "SetPrice",
      "type": "event"
    },
    {
      "anonymous": false,
      "inputs": [
        {
          "indexed": false,
          "internalType": "address",
          "name": "_owner",
          "type": "address"
        },
        {
          "indexed": false,
          "internalType": "uint256",
          "name": "_tokenCount",
          "type": "uint256"
        },
        {
          "indexed": false,
          "internalType": "uint256",
          "name": "_targetTimestamp",
          "type": "uint256"
        },
        {
          "indexed": false,
          "internalType": "address",
          "name": "_tokenContract",
          "type": "address"
        }
      ],
      "name": "TokensLock",
      "type": "event"
    },
    {
      "inputs": [
        {
          "internalType": "uint256",
          "name": "vaultId",
          "type": "uint256"
        }
      ],
      "name": "claimByVaultId",
      "outputs": [
        {
          "internalType": "bool",
          "name": "",
          "type": "bool"
        }
      ],
      "stateMutability": "payable",
      "type": "function"
    },
    {
      "inputs": [
        {
          "internalType": "uint256",
          "name": "_vaultId",
          "type": "uint256"
        },
        {
          "internalType": "uint256",
          "name": "_targetTime",
          "type": "uint256"
        }
      ],
      "name": "extendLockTime",
      "outputs": [],
      "stateMutability": "nonpayable",
      "type": "function"
    },
    {
      "inputs": [],
      "name": "feeWallet",
      "outputs": [
        {
          "internalType": "address",
          "name": "",
          "type": "address"
        }
      ],
      "stateMutability": "view",
      "type": "function"
    },
    {
      "inputs": [
        {
          "internalType": "address",
          "name": "userAddress",
          "type": "address"
        }
      ],
      "name": "getUserVaults",
      "outputs": [
        {
          "components": [
            {
              "components": [
                {
                  "internalType": "address",
                  "name": "tokenAddress",
                  "type": "address"
                },
                {
                  "internalType": "bool",
                  "name": "nativeToken",
                  "type": "bool"
                },
                {
                  "components": [
                    {
                      "internalType": "uint256",
                      "name": "tokensCount",
                      "type": "uint256"
                    },
                    {
                      "internalType": "uint256",
                      "name": "releaseTargetTimestamp",
                      "type": "uint256"
                    },
                    {
                      "internalType": "bool",
                      "name": "claimed",
                      "type": "bool"
                    }
                  ],
                  "internalType": "struct Locker.ReleaseCheckpoint[]",
                  "name": "checkpoints",
                  "type": "tuple[]"
                }
              ],
              "internalType": "struct Locker.VestedTokenVault[]",
              "name": "userVaults",
              "type": "tuple[]"
            }
          ],
          "internalType": "struct Locker.UserLocks",
          "name": "",
          "type": "tuple"
        }
      ],
      "stateMutability": "view",
      "type": "function"
    },
    {
      "inputs": [
        {
          "internalType": "uint256",
          "name": "targetTimestamp",
          "type": "uint256"
        },
        {
          "internalType": "address",
          "name": "tokenContract",
          "type": "address"
        },
        {
          "internalType": "uint256",
          "name": "tokenCount",
          "type": "uint256"
        }
      ],
      "name": "lock",
      "outputs": [
        {
          "internalType": "uint256",
          "name": "",
          "type": "uint256"
        }
      ],
      "stateMutability": "payable",
      "type": "function"
    },
    {
      "inputs": [
        {
          "internalType": "uint256",
          "name": "targetTimestamp",
          "type": "uint256"
        }
      ],
      "name": "lockNativeCurrency",
      "outputs": [],
      "stateMutability": "payable",
      "type": "function"
    },
    {
      "inputs": [],
      "name": "owner",
      "outputs": [
        {
          "internalType": "address",
          "name": "",
          "type": "address"
        }
      ],
      "stateMutability": "view",
      "type": "function"
    },
    {
      "inputs": [],
      "name": "price",
      "outputs": [
        {
          "internalType": "uint256",
          "name": "",
          "type": "uint256"
        }
      ],
      "stateMutability": "view",
      "type": "function"
    },
    {
      "inputs": [],
      "name": "renounceOwnership",
      "outputs": [],
      "stateMutability": "nonpayable",
      "type": "function"
    },
    {
      "inputs": [
        {
          "internalType": "address payable",
          "name": "wallet",
          "type": "address"
        }
      ],
      "name": "setFeeWallet",
      "outputs": [],
      "stateMutability": "nonpayable",
      "type": "function"
    },
    {
      "inputs": [
        {
          "internalType": "uint256",
          "name": "newPrice",
          "type": "uint256"
        }
      ],
      "name": "setPrice",
      "outputs": [],
      "stateMutability": "nonpayable",
      "type": "function"
    },
    {
      "inputs": [
        {
          "internalType": "address",
          "name": "newOwner",
          "type": "address"
        }
      ],
      "name": "transferOwnership",
      "outputs": [],
      "stateMutability": "nonpayable",
      "type": "function"
    }
  ],
  "bytecode": "0x608060405234801561001057600080fd5b5061002d61002261003260201b60201c565b61003a60201b60201c565b6100fe565b600033905090565b60008060009054906101000a900473ffffffffffffffffffffffffffffffffffffffff169050816000806101000a81548173ffffffffffffffffffffffffffffffffffffffff021916908373ffffffffffffffffffffffffffffffffffffffff1602179055508173ffffffffffffffffffffffffffffffffffffffff168173ffffffffffffffffffffffffffffffffffffffff167f8be0079c531659141344cd1fd0a4f28419497f9722a3daafe3b4186f6b6457e060405160405180910390a35050565b612303806200010e6000396000f3fe6080604052600436106100a75760003560e01c8063aefaa39711610064578063aefaa3971461019b578063b6fffbf0146101b7578063cf27cfc4146101e0578063e7f3c69c14610210578063f25f4b561461024d578063f2fde38b14610278576100a7565b80631e5e285c146100ac578063715018a6146100dc5780638da5cb5b146100f357806390d49b9d1461011e57806391b7f5ed14610147578063a035b1fe14610170575b600080fd5b6100c660048036038101906100c191906117b2565b6102a1565b6040516100d39190611f39565b60405180910390f35b3480156100e857600080fd5b506100f16106b6565b005b3480156100ff57600080fd5b5061010861073e565b6040516101159190611e79565b60405180910390f35b34801561012a57600080fd5b5061014560048036038101906101409190611760565b610767565b005b34801561015357600080fd5b5061016e600480360381019061016991906117b2565b610827565b005b34801561017c57600080fd5b506101856108f1565b6040516101929190612116565b60405180910390f35b6101b560048036038101906101b091906117b2565b6108f7565b005b3480156101c357600080fd5b506101de60048036038101906101d9919061182a565b610c3f565b005b6101fa60048036038101906101f591906117db565b610dea565b6040516102079190612116565b60405180910390f35b34801561021c57600080fd5b5061023760048036038101906102329190611737565b61132f565b60405161024491906120f4565b60405180910390f35b34801561025957600080fd5b506102626114e6565b60405161026f9190611e79565b60405180910390f35b34801561028457600080fd5b5061029f600480360381019061029a9190611737565b61150c565b005b6000808210156102e6576040517f08c379a00000000000000000000000000000000000000000000000000000000081526004016102dd90611f94565b60405180910390fd5b6000600360003373ffffffffffffffffffffffffffffffffffffffff1673ffffffffffffffffffffffffffffffffffffffff1681526020019081526020016000206000018381548110610362577f4e487b7100000000000000000000000000000000000000000000000000000000600052603260045260246000fd5b906000526020600020906002020190506000816001016000815481106103b1577f4e487b7100000000000000000000000000000000000000000000000000000000600052603260045260246000fd5b90600052602060002090600302019050600015158160020160009054906101000a900460ff16151514610419576040517f08c379a000000000000000000000000000000000000000000000000000000000815260040161041090612014565b60405180910390fd5b4281600101541115610460576040517f08c379a000000000000000000000000000000000000000000000000000000000815260040161045790611fd4565b60405180910390fd5b8160000160149054906101000a900460ff1615610534573373ffffffffffffffffffffffffffffffffffffffff166108fc836001016000815481106104ce577f4e487b7100000000000000000000000000000000000000000000000000000000600052603260045260246000fd5b9060005260206000209060030201600001549081150290604051600060405180830381858888f1935050505015801561050b573d6000803e3d6000fd5b5060018160020160006101000a81548160ff0219169083151502179055506001925050506106b1565b8160000160009054906101000a900473ffffffffffffffffffffffffffffffffffffffff1673ffffffffffffffffffffffffffffffffffffffff1663a9059cbb3383600001546040518363ffffffff1660e01b8152600401610597929190611ecb565b602060405180830381600087803b1580156105b157600080fd5b505af19250505080156105e257506040513d601f19601f820116820180604052508101906105df9190611789565b60015b610653573d8060008114610612576040519150601f19603f3d011682016040523d82523d6000602084013e610617565b606091505b506040517f08c379a000000000000000000000000000000000000000000000000000000000815260040161064a90611f54565b60405180910390fd5b60018260020160006101000a81548160ff0219169083151502179055507fd8138f8a3f377c5259ca548e70e4c2de94f129f5a11036a15b69513cba2b426a33866040516106a1929190611ecb565b60405180910390a1600193505050505b919050565b6106be611604565b73ffffffffffffffffffffffffffffffffffffffff166106dc61073e565b73ffffffffffffffffffffffffffffffffffffffff1614610732576040517f08c379a000000000000000000000000000000000000000000000000000000000815260040161072990612034565b60405180910390fd5b61073c600061160c565b565b60008060009054906101000a900473ffffffffffffffffffffffffffffffffffffffff16905090565b61076f611604565b73ffffffffffffffffffffffffffffffffffffffff1661078d61073e565b73ffffffffffffffffffffffffffffffffffffffff16146107e3576040517f08c379a00000000000000000000000000000000000000000000000000000000081526004016107da90612034565b60405180910390fd5b80600260006101000a81548173ffffffffffffffffffffffffffffffffffffffff021916908373ffffffffffffffffffffffffffffffffffffffff16021790555050565b61082f611604565b73ffffffffffffffffffffffffffffffffffffffff1661084d61073e565b73ffffffffffffffffffffffffffffffffffffffff16146108a3576040517f08c379a000000000000000000000000000000000000000000000000000000000815260040161089a90612034565b60405180910390fd5b600081116108b057600080fd5b806001819055507f4f5539c0409dfc4cb06f64cbd31237e1fbfe443f531584bf4dd77ec7fc5ba7b1816040516108e69190612116565b60405180910390a150565b60015481565b60015434101561093c576040517f08c379a0000000000000000000000000000000000000000000000000000000008152600401610933906120b4565b60405180910390fd5b42811161097e576040517f08c379a000000000000000000000000000000000000000000000000000000000815260040161097590612074565b60405180910390fd5b600360003373ffffffffffffffffffffffffffffffffffffffff1673ffffffffffffffffffffffffffffffffffffffff1681526020019081526020016000206000016001816001815401808255809150500390600052602060002090505060006001600360003373ffffffffffffffffffffffffffffffffffffffff1673ffffffffffffffffffffffffffffffffffffffff16815260200190815260200160002060000180549050610a3091906121b4565b9050600360003373ffffffffffffffffffffffffffffffffffffffff1673ffffffffffffffffffffffffffffffffffffffff1681526020019081526020016000206000018181548110610aac577f4e487b7100000000000000000000000000000000000000000000000000000000600052603260045260246000fd5b9060005260206000209060020201600101600181600181540180825580915050039060005260206000209050506000600360003373ffffffffffffffffffffffffffffffffffffffff1673ffffffffffffffffffffffffffffffffffffffff1681526020019081526020016000206000018281548110610b55577f4e487b7100000000000000000000000000000000000000000000000000000000600052603260045260246000fd5b90600052602060002090600202019050600081600101600081548110610ba4577f4e487b7100000000000000000000000000000000000000000000000000000000600052603260045260246000fd5b9060005260206000209060030201905060018260000160146101000a81548160ff02191690831515021790555034816000018190555083816001018190555060008160020160006101000a81548160ff0219169083151502179055507f6c2f644664077ca4d481d6f72d150eb74c78db5031ebc561b453aff2fee962b23385604051610c31929190611ecb565b60405180910390a150505050565b6000600360003373ffffffffffffffffffffffffffffffffffffffff1673ffffffffffffffffffffffffffffffffffffffff1681526020019081526020016000206000018381548110610cbb577f4e487b7100000000000000000000000000000000000000000000000000000000600052603260045260246000fd5b90600052602060002090600202019050600081600101600081548110610d0a577f4e487b7100000000000000000000000000000000000000000000000000000000600052603260045260246000fd5b9060005260206000209060030201905080600101548311610d60576040517f08c379a0000000000000000000000000000000000000000000000000000000008152600401610d57906120d4565b60405180910390fd5b824210610da2576040517f08c379a0000000000000000000000000000000000000000000000000000000008152600401610d9990611fb4565b60405180910390fd5b8281600101819055507fdb6d23e630c3bae85ae7cfa9a575e64753e38ff928f657cb22a9c0e8e821b1a13384604051610ddc929190611ecb565b60405180910390a150505050565b6000600154341015610e31576040517f08c379a0000000000000000000000000000000000000000000000000000000008152600401610e28906120b4565b60405180910390fd5b428411610e73576040517f08c379a0000000000000000000000000000000000000000000000000000000008152600401610e6a90612074565b60405180910390fd5b60008211610eb6576040517f08c379a0000000000000000000000000000000000000000000000000000000008152600401610ead90612094565b60405180910390fd5b600073ffffffffffffffffffffffffffffffffffffffff168373ffffffffffffffffffffffffffffffffffffffff161415610f26576040517f08c379a0000000000000000000000000000000000000000000000000000000008152600401610f1d90611ff4565b60405180910390fd5b600360003373ffffffffffffffffffffffffffffffffffffffff1673ffffffffffffffffffffffffffffffffffffffff1681526020019081526020016000206000016001816001815401808255809150500390600052602060002090505060006001600360003373ffffffffffffffffffffffffffffffffffffffff1673ffffffffffffffffffffffffffffffffffffffff16815260200190815260200160002060000180549050610fd891906121b4565b9050600360003373ffffffffffffffffffffffffffffffffffffffff1673ffffffffffffffffffffffffffffffffffffffff1681526020019081526020016000206000018181548110611054577f4e487b7100000000000000000000000000000000000000000000000000000000600052603260045260246000fd5b9060005260206000209060020201600101600181600181540180825580915050039060005260206000209050506000600360003373ffffffffffffffffffffffffffffffffffffffff1673ffffffffffffffffffffffffffffffffffffffff16815260200190815260200160002060000182815481106110fd577f4e487b7100000000000000000000000000000000000000000000000000000000600052603260045260246000fd5b9060005260206000209060020201905060008160010160008154811061114c577f4e487b7100000000000000000000000000000000000000000000000000000000600052603260045260246000fd5b90600052602060002090600302019050858260000160006101000a81548173ffffffffffffffffffffffffffffffffffffffff021916908373ffffffffffffffffffffffffffffffffffffffff16021790555060008260000160146101000a81548160ff02191690831515021790555084816000018190555086816001018190555060008160020160006101000a81548160ff0219169083151502179055508573ffffffffffffffffffffffffffffffffffffffff166323b872dd3330886040518463ffffffff1660e01b815260040161122893929190611e94565b602060405180830381600087803b15801561124257600080fd5b505af192505050801561127357506040513d601f19601f820116820180604052508101906112709190611789565b60015b6112e4573d80600081146112a3576040519150601f19603f3d011682016040523d82523d6000602084013e6112a8565b606091505b506040517f08c379a00000000000000000000000000000000000000000000000000000000081526004016112db90612054565b60405180910390fd5b7fd8bebd05cb13967f51ecfe5c7b01182082fcb49224f2c951a9d174ae989c292e33878a8a6040516113199493929190611ef4565b60405180910390a1839450505050509392505050565b6113376116d0565b600360008373ffffffffffffffffffffffffffffffffffffffff1673ffffffffffffffffffffffffffffffffffffffff16815260200190815260200160002060405180602001604052908160008201805480602002602001604051908101604052809291908181526020016000905b828210156114d757838290600052602060002090600202016040518060600160405290816000820160009054906101000a900473ffffffffffffffffffffffffffffffffffffffff1673ffffffffffffffffffffffffffffffffffffffff1673ffffffffffffffffffffffffffffffffffffffff1681526020016000820160149054906101000a900460ff1615151515815260200160018201805480602002602001604051908101604052809291908181526020016000905b828210156114c0578382906000526020600020906003020160405180606001604052908160008201548152602001600182015481526020016002820160009054906101000a900460ff1615151515815250508152602001906001019061145f565b5050505081525050815260200190600101906113a6565b50505050815250509050919050565b600260009054906101000a900473ffffffffffffffffffffffffffffffffffffffff1681565b611514611604565b73ffffffffffffffffffffffffffffffffffffffff1661153261073e565b73ffffffffffffffffffffffffffffffffffffffff1614611588576040517f08c379a000000000000000000000000000000000000000000000000000000000815260040161157f90612034565b60405180910390fd5b600073ffffffffffffffffffffffffffffffffffffffff168173ffffffffffffffffffffffffffffffffffffffff1614156115f8576040517f08c379a00000000000000000000000000000000000000000000000000000000081526004016115ef90611f74565b60405180910390fd5b6116018161160c565b50565b600033905090565b60008060009054906101000a900473ffffffffffffffffffffffffffffffffffffffff169050816000806101000a81548173ffffffffffffffffffffffffffffffffffffffff021916908373ffffffffffffffffffffffffffffffffffffffff1602179055508173ffffffffffffffffffffffffffffffffffffffff168173ffffffffffffffffffffffffffffffffffffffff167f8be0079c531659141344cd1fd0a4f28419497f9722a3daafe3b4186f6b6457e060405160405180910390a35050565b6040518060200160405280606081525090565b6000813590506116f281612271565b92915050565b60008135905061170781612288565b92915050565b60008151905061171c8161229f565b92915050565b600081359050611731816122b6565b92915050565b60006020828403121561174957600080fd5b6000611757848285016116e3565b91505092915050565b60006020828403121561177257600080fd5b6000611780848285016116f8565b91505092915050565b60006020828403121561179b57600080fd5b60006117a98482850161170d565b91505092915050565b6000602082840312156117c457600080fd5b60006117d284828501611722565b91505092915050565b6000806000606084860312156117f057600080fd5b60006117fe86828701611722565b935050602061180f868287016116e3565b925050604061182086828701611722565b9150509250925092565b6000806040838503121561183d57600080fd5b600061184b85828601611722565b925050602061185c85828601611722565b9150509250929050565b60006118728383611d9f565b60608301905092915050565b600061188a8383611e0b565b905092915050565b61189b816121e8565b82525050565b6118aa816121e8565b82525050565b60006118bb82612151565b6118c58185612181565b93506118d083612131565b8060005b838110156119015781516118e88882611866565b97506118f383612167565b9250506001810190506118d4565b5085935050505092915050565b60006119198261215c565b6119238185612192565b93508360208202850161193585612141565b8060005b858110156119715784840389528151611952858261187e565b945061195d83612174565b925060208a01995050600181019050611939565b50829750879550505050505092915050565b61198c8161220c565b82525050565b61199b8161220c565b82525050565b60006119ae600e836121a3565b91507f5472616e73666572206572726f720000000000000000000000000000000000006000830152602082019050919050565b60006119ee6026836121a3565b91507f4f776e61626c653a206e6577206f776e657220697320746865207a65726f206160008301527f64647265737300000000000000000000000000000000000000000000000000006020830152604082019050919050565b6000611a54601a836121a3565b91507f7661756c7449642073686f756c6420626520706f7369746976650000000000006000830152602082019050919050565b6000611a946035836121a3565b91507f4e657720756e6c6f636b2074696d65206d75737420626520677265617465722060008301527f7468616e207468652063757272656e742074696d6500000000000000000000006020830152604082019050919050565b6000611afa601f836121a3565b91507f43616e6e6f7420636c61696d206265666f7265207461726765742064617465006000830152602082019050919050565b6000611b3a6016836121a3565b91507f546f6b656e20636f6e7472616374206973206e756c6c000000000000000000006000830152602082019050919050565b6000611b7a600f836121a3565b91507f416c726561647920636c61696d656400000000000000000000000000000000006000830152602082019050919050565b6000611bba6020836121a3565b91507f4f776e61626c653a2063616c6c6572206973206e6f7420746865206f776e65726000830152602082019050919050565b6000611bfa6012836121a3565b91507f4e6f7420616e20455243323020746f6b656e00000000000000000000000000006000830152602082019050919050565b6000611c3a6019836121a3565b91507f4461746520696e2074686520706173742073656c6563746564000000000000006000830152602082019050919050565b6000611c7a6023836121a3565b91507f546f6b656e20636f756e74206d75737420626520706f736974697665206e756d60008301527f62657200000000000000000000000000000000000000000000000000000000006020830152604082019050919050565b6000611ce06021836121a3565b91507f4e6f7420656e6f756768204554482073656e743b20636865636b20707269636560008301527f21000000000000000000000000000000000000000000000000000000000000006020830152604082019050919050565b6000611d46602d836121a3565b91507f4e657720756e6c6f636b2074696d65206d75737420626520677265617465722060008301527f7468616e2070726576696f7573000000000000000000000000000000000000006020830152604082019050919050565b606082016000820151611db56000850182611e5b565b506020820151611dc86020850182611e5b565b506040820151611ddb6040850182611983565b50505050565b60006020830160008301518482036000860152611dfe828261190e565b9150508091505092915050565b6000606083016000830151611e236000860182611892565b506020830151611e366020860182611983565b5060408301518482036040860152611e4e82826118b0565b9150508091505092915050565b611e6481612238565b82525050565b611e7381612238565b82525050565b6000602082019050611e8e60008301846118a1565b92915050565b6000606082019050611ea960008301866118a1565b611eb660208301856118a1565b611ec36040830184611e6a565b949350505050565b6000604082019050611ee060008301856118a1565b611eed6020830184611e6a565b9392505050565b6000608082019050611f0960008301876118a1565b611f166020830186611e6a565b611f236040830185611e6a565b611f3060608301846118a1565b95945050505050565b6000602082019050611f4e6000830184611992565b92915050565b60006020820190508181036000830152611f6d816119a1565b9050919050565b60006020820190508181036000830152611f8d816119e1565b9050919050565b60006020820190508181036000830152611fad81611a47565b9050919050565b60006020820190508181036000830152611fcd81611a87565b9050919050565b60006020820190508181036000830152611fed81611aed565b9050919050565b6000602082019050818103600083015261200d81611b2d565b9050919050565b6000602082019050818103600083015261202d81611b6d565b9050919050565b6000602082019050818103600083015261204d81611bad565b9050919050565b6000602082019050818103600083015261206d81611bed565b9050919050565b6000602082019050818103600083015261208d81611c2d565b9050919050565b600060208201905081810360008301526120ad81611c6d565b9050919050565b600060208201905081810360008301526120cd81611cd3565b9050919050565b600060208201905081810360008301526120ed81611d39565b9050919050565b6000602082019050818103600083015261210e8184611de1565b905092915050565b600060208201905061212b6000830184611e6a565b92915050565b6000819050602082019050919050565b6000819050602082019050919050565b600081519050919050565b600081519050919050565b6000602082019050919050565b6000602082019050919050565b600082825260208201905092915050565b600082825260208201905092915050565b600082825260208201905092915050565b60006121bf82612238565b91506121ca83612238565b9250828210156121dd576121dc612242565b5b828203905092915050565b60006121f382612218565b9050919050565b600061220582612218565b9050919050565b60008115159050919050565b600073ffffffffffffffffffffffffffffffffffffffff82169050919050565b6000819050919050565b7f4e487b7100000000000000000000000000000000000000000000000000000000600052601160045260246000fd5b61227a816121e8565b811461228557600080fd5b50565b612291816121fa565b811461229c57600080fd5b50565b6122a88161220c565b81146122b357600080fd5b50565b6122bf81612238565b81146122ca57600080fd5b5056fea264697066735822122084db9e1769e17a756e2ffd036056e8573b2ba5855e61b679eea6ce36803ab1cc64736f6c63430008000033",
  "linkReferences": {},
  "deployedLinkReferences": {}
}